{
  "contractName": "Certificate",
  "abi": [
    {
      "anonymous": false,
      "inputs": [
        {
          "indexed": false,
          "name": "totalTrustValue",
          "type": "uint256"
        }
      ],
      "name": "check",
      "type": "event"
    },
    {
      "anonymous": false,
      "inputs": [
        {
          "indexed": false,
          "name": "totalTrustValue",
          "type": "uint256"
        }
      ],
      "name": "check1",
      "type": "event"
    },
    {
      "anonymous": false,
      "inputs": [
        {
          "indexed": false,
          "name": "totalTrustValue",
          "type": "uint256"
        }
      ],
      "name": "check2",
      "type": "event"
    },
    {
      "constant": false,
      "inputs": [
        {
          "name": "userAddress",
          "type": "address"
        },
        {
          "name": "userDomain",
          "type": "string"
        },
        {
          "name": "userMail",
          "type": "string"
        },
        {
          "name": "periodOfValidity",
          "type": "string"
        },
        {
          "name": "signature",
          "type": "string"
        }
      ],
      "name": "newCertificate",
      "outputs": [
        {
          "name": "success",
          "type": "bool"
        }
      ],
      "payable": false,
      "stateMutability": "nonpayable",
      "type": "function"
    },
    {
      "constant": true,
      "inputs": [
        {
          "name": "userAddress",
          "type": "address"
        }
      ],
      "name": "getUserCertificate",
      "outputs": [
        {
          "name": "userDomain",
          "type": "string"
        },
        {
          "name": "userMail",
          "type": "string"
        },
        {
          "name": "trustValue",
          "type": "uint256"
        },
        {
          "name": "periodOfValidity",
          "type": "string"
        },
        {
          "name": "signature",
          "type": "string"
        },
        {
          "name": "version",
          "type": "string"
        }
      ],
      "payable": false,
      "stateMutability": "view",
      "type": "function"
    },
    {
      "constant": false,
      "inputs": [
        {
          "name": "userAddress",
          "type": "address"
        }
      ],
      "name": "isCertificateExist",
      "outputs": [
        {
          "name": "isCertificateValid",
          "type": "bool"
        }
      ],
      "payable": false,
      "stateMutability": "nonpayable",
      "type": "function"
    },
    {
      "constant": false,
      "inputs": [
        {
          "name": "userAddress",
          "type": "address"
        },
        {
          "name": "aTrustValue",
          "type": "uint256"
        }
      ],
      "name": "updateTrustValue",
      "outputs": [
        {
          "name": "success",
          "type": "bool"
        }
      ],
      "payable": false,
      "stateMutability": "nonpayable",
      "type": "function"
    },
    {
      "constant": false,
      "inputs": [
        {
          "name": "certifyForAddress",
          "type": "address"
        },
        {
          "name": "byAddress",
          "type": "address"
        },
        {
          "name": "amountGiven",
          "type": "uint256"
        }
      ],
      "name": "requestCertificationTo",
      "outputs": [
        {
          "name": "success",
          "type": "bool"
        }
      ],
      "payable": false,
      "stateMutability": "nonpayable",
      "type": "function"
    },
    {
      "constant": false,
      "inputs": [
        {
          "name": "certifyForAdd",
          "type": "address"
        },
        {
          "name": "byAdd",
          "type": "address"
        },
        {
          "name": "amountGivenBack",
          "type": "uint256"
        }
      ],
      "name": "backEtherForCertification",
      "outputs": [
        {
          "name": "success",
          "type": "bool"
        }
      ],
      "payable": false,
      "stateMutability": "nonpayable",
      "type": "function"
    }
  ],
  "bytecode": "0x608060405234801561001057600080fd5b506117cd806100206000396000f3fe608060405234801561001057600080fd5b50600436106100625760003560e01c806302fe7160146100675780630bfdc7d7146100cd57806316d307a01461034157806389f1f6a8146103c7578063a59902cf14610423578063fcfd0a16146104a9575b600080fd5b6100b36004803603604081101561007d57600080fd5b81019080803573ffffffffffffffffffffffffffffffffffffffff16906020019092919080359060200190929190505050610761565b604051808215151515815260200191505060405180910390f35b61010f600480360360208110156100e357600080fd5b81019080803573ffffffffffffffffffffffffffffffffffffffff1690602001909291905050506108bf565b60405180806020018060200187815260200180602001806020018060200186810386528c818151815260200191508051906020019080838360005b8381101561016557808201518184015260208101905061014a565b50505050905090810190601f1680156101925780820380516001836020036101000a031916815260200191505b5086810385528b818151815260200191508051906020019080838360005b838110156101cb5780820151818401526020810190506101b0565b50505050905090810190601f1680156101f85780820380516001836020036101000a031916815260200191505b50868103845289818151815260200191508051906020019080838360005b83811015610231578082015181840152602081019050610216565b50505050905090810190601f16801561025e5780820380516001836020036101000a031916815260200191505b50868103835288818151815260200191508051906020019080838360005b8381101561029757808201518184015260208101905061027c565b50505050905090810190601f1680156102c45780820380516001836020036101000a031916815260200191505b50868103825287818151815260200191508051906020019080838360005b838110156102fd5780820151818401526020810190506102e2565b50505050905090810190601f16801561032a5780820380516001836020036101000a031916815260200191505b509b50505050505050505050505060405180910390f35b6103ad6004803603606081101561035757600080fd5b81019080803573ffffffffffffffffffffffffffffffffffffffff169060200190929190803573ffffffffffffffffffffffffffffffffffffffff16906020019092919080359060200190929190505050610d77565b604051808215151515815260200191505060405180910390f35b610409600480360360208110156103dd57600080fd5b81019080803573ffffffffffffffffffffffffffffffffffffffff1690602001909291905050506110c3565b604051808215151515815260200191505060405180910390f35b61048f6004803603606081101561043957600080fd5b81019080803573ffffffffffffffffffffffffffffffffffffffff169060200190929190803573ffffffffffffffffffffffffffffffffffffffff1690602001909291908035906020019092919050505061119b565b604051808215151515815260200191505060405180910390f35b610747600480360360a08110156104bf57600080fd5b81019080803573ffffffffffffffffffffffffffffffffffffffff169060200190929190803590602001906401000000008111156104fc57600080fd5b82018360208201111561050e57600080fd5b8035906020019184600183028401116401000000008311171561053057600080fd5b91908080601f016020809104026020016040519081016040528093929190818152602001838380828437600081840152601f19601f8201169050808301925050505050505091929192908035906020019064010000000081111561059357600080fd5b8201836020820111156105a557600080fd5b803590602001918460018302840111640100000000831117156105c757600080fd5b91908080601f016020809104026020016040519081016040528093929190818152602001838380828437600081840152601f19601f8201169050808301925050505050505091929192908035906020019064010000000081111561062a57600080fd5b82018360208201111561063c57600080fd5b8035906020019184600183028401116401000000008311171561065e57600080fd5b91908080601f016020809104026020016040519081016040528093929190818152602001838380828437600081840152601f19601f820116905080830192505050505050509192919290803590602001906401000000008111156106c157600080fd5b8201836020820111156106d357600080fd5b803590602001918460018302840111640100000000831117156106f557600080fd5b91908080601f016020809104026020016040519081016040528093929190818152602001838380828437600081840152601f19601f8201169050808301925050505050505091929192905050506112f8565b604051808215151515815260200191505060405180910390f35b60008082600160008673ffffffffffffffffffffffffffffffffffffffff1673ffffffffffffffffffffffffffffffffffffffff1681526020019081526020016000206002015401905060018060008673ffffffffffffffffffffffffffffffffffffffff1673ffffffffffffffffffffffffffffffffffffffff1681526020019081526020016000206006015401600160008673ffffffffffffffffffffffffffffffffffffffff1673ffffffffffffffffffffffffffffffffffffffff1681526020019081526020016000206006018190555080600160008673ffffffffffffffffffffffffffffffffffffffff1673ffffffffffffffffffffffffffffffffffffffff168152602001908152602001600020600201819055507f5f72f450c381493c8b88f0bcbf2bbe88a1ad56665696daa7cb7349917afdd320816040518082815260200191505060405180910390a1600191505092915050565b60608060006060806060600160008873ffffffffffffffffffffffffffffffffffffffff1673ffffffffffffffffffffffffffffffffffffffff168152602001908152602001600020600001600160008973ffffffffffffffffffffffffffffffffffffffff1673ffffffffffffffffffffffffffffffffffffffff168152602001908152602001600020600101600160008a73ffffffffffffffffffffffffffffffffffffffff1673ffffffffffffffffffffffffffffffffffffffff16815260200190815260200160002060020154600160008b73ffffffffffffffffffffffffffffffffffffffff1673ffffffffffffffffffffffffffffffffffffffff168152602001908152602001600020600301600160008c73ffffffffffffffffffffffffffffffffffffffff1673ffffffffffffffffffffffffffffffffffffffff168152602001908152602001600020600401600160008d73ffffffffffffffffffffffffffffffffffffffff1673ffffffffffffffffffffffffffffffffffffffff168152602001908152602001600020600501858054600181600116156101000203166002900480601f016020809104026020016040519081016040528092919081815260200182805460018160011615610100020316600290048015610aeb5780601f10610ac057610100808354040283529160200191610aeb565b820191906000526020600020905b815481529060010190602001808311610ace57829003601f168201915b50505050509550848054600181600116156101000203166002900480601f016020809104026020016040519081016040528092919081815260200182805460018160011615610100020316600290048015610b875780601f10610b5c57610100808354040283529160200191610b87565b820191906000526020600020905b815481529060010190602001808311610b6a57829003601f168201915b50505050509450828054600181600116156101000203166002900480601f016020809104026020016040519081016040528092919081815260200182805460018160011615610100020316600290048015610c235780601f10610bf857610100808354040283529160200191610c23565b820191906000526020600020905b815481529060010190602001808311610c0657829003601f168201915b50505050509250818054600181600116156101000203166002900480601f016020809104026020016040519081016040528092919081815260200182805460018160011615610100020316600290048015610cbf5780601f10610c9457610100808354040283529160200191610cbf565b820191906000526020600020905b815481529060010190602001808311610ca257829003601f168201915b50505050509150808054600181600116156101000203166002900480601f016020809104026020016040519081016040528092919081815260200182805460018160011615610100020316600290048015610d5b5780601f10610d3057610100808354040283529160200191610d5b565b820191906000526020600020905b815481529060010190602001808311610d3e57829003601f168201915b5050505050905095509550955095509550955091939550919395565b600080600090505b600260008673ffffffffffffffffffffffffffffffffffffffff1673ffffffffffffffffffffffffffffffffffffffff168152602001908152602001600020805490508110156110ba577f460615790a0f11ca15374eddcf8f94f79e3cb520b074ac33e715defcc13ae9e560016040518082815260200191505060405180910390a18373ffffffffffffffffffffffffffffffffffffffff16600260008773ffffffffffffffffffffffffffffffffffffffff1673ffffffffffffffffffffffffffffffffffffffff1681526020019081526020016000208281548110610e6257fe5b906000526020600020906004020160000160009054906101000a900473ffffffffffffffffffffffffffffffffffffffff1673ffffffffffffffffffffffffffffffffffffffff1614156110ad5782600260008773ffffffffffffffffffffffffffffffffffffffff1673ffffffffffffffffffffffffffffffffffffffff1681526020019081526020016000208281548110610efb57fe5b906000526020600020906004020160020181905550600260008673ffffffffffffffffffffffffffffffffffffffff1673ffffffffffffffffffffffffffffffffffffffff1681526020019081526020016000208181548110610f5a57fe5b906000526020600020906004020160010154600260008773ffffffffffffffffffffffffffffffffffffffff1673ffffffffffffffffffffffffffffffffffffffff1681526020019081526020016000208281548110610fb657fe5b90600052602060002090600402016002015414156110a3577fe71014b0fb2caca1d52b4960ae7a7941dacd8cb0f64f876665e851f23e6eaf4260026040518082815260200191505060405180910390a16001600260008773ffffffffffffffffffffffffffffffffffffffff1673ffffffffffffffffffffffffffffffffffffffff168152602001908152602001600020828154811061105257fe5b906000526020600020906004020160030160006101000a81548160ff0219169083151502179055506000839050600a81111561108d57600a90505b6110978682610761565b506001925050506110bc565b60009150506110bc565b8080600101915050610d7f565b505b9392505050565b60008060008054905014156110db5760009050611196565b8173ffffffffffffffffffffffffffffffffffffffff166000600160008573ffffffffffffffffffffffffffffffffffffffff1673ffffffffffffffffffffffffffffffffffffffff168152602001908152602001600020600701548154811061114157fe5b9060005260206000200160009054906101000a900473ffffffffffffffffffffffffffffffffffffffff1673ffffffffffffffffffffffffffffffffffffffff1614156111915760019050611196565b600090505b919050565b60006111a56116bc565b83816000019073ffffffffffffffffffffffffffffffffffffffff16908173ffffffffffffffffffffffffffffffffffffffff16815250508281602001818152505060008160400181815250506000816060019015159081151581525050600260008673ffffffffffffffffffffffffffffffffffffffff1673ffffffffffffffffffffffffffffffffffffffff168152602001908152602001600020819080600181540180825580915050906001820390600052602060002090600402016000909192909190915060008201518160000160006101000a81548173ffffffffffffffffffffffffffffffffffffffff021916908373ffffffffffffffffffffffffffffffffffffffff160217905550602082015181600101556040820151816002015560608201518160030160006101000a81548160ff02191690831515021790555050505060019150509392505050565b600083600160008873ffffffffffffffffffffffffffffffffffffffff1673ffffffffffffffffffffffffffffffffffffffff16815260200190815260200160002060010190805190602001906113509291906116fc565b5084600160008873ffffffffffffffffffffffffffffffffffffffff1673ffffffffffffffffffffffffffffffffffffffff16815260200190815260200160002060000190805190602001906113a79291906116fc565b5082600160008873ffffffffffffffffffffffffffffffffffffffff1673ffffffffffffffffffffffffffffffffffffffff16815260200190815260200160002060030190805190602001906113fe9291906116fc565b506000600160008873ffffffffffffffffffffffffffffffffffffffff1673ffffffffffffffffffffffffffffffffffffffff168152602001908152602001600020600201819055506040518060400160405280600581526020017f302e302e31000000000000000000000000000000000000000000000000000000815250600160008873ffffffffffffffffffffffffffffffffffffffff1673ffffffffffffffffffffffffffffffffffffffff16815260200190815260200160002060050190805190602001906114d29291906116fc565b506040518060400160405280601c81526020017f74657374696e672e2e2e2e20546865207369676e61747572652e2e2e00000000815250600160008873ffffffffffffffffffffffffffffffffffffffff1673ffffffffffffffffffffffffffffffffffffffff168152602001908152602001600020600401908051906020019061155e9291906116fc565b5060018060008873ffffffffffffffffffffffffffffffffffffffff1673ffffffffffffffffffffffffffffffffffffffff16815260200190815260200160002060080160006101000a81548160ff021916908315150217905550600160008790806001815401808255809150509060018203906000526020600020016000909192909190916101000a81548173ffffffffffffffffffffffffffffffffffffffff021916908373ffffffffffffffffffffffffffffffffffffffff16021790555003600160008873ffffffffffffffffffffffffffffffffffffffff1673ffffffffffffffffffffffffffffffffffffffff168152602001908152602001600020600701819055506000600160008873ffffffffffffffffffffffffffffffffffffffff1673ffffffffffffffffffffffffffffffffffffffff168152602001908152602001600020600601819055506001905095945050505050565b6040518060800160405280600073ffffffffffffffffffffffffffffffffffffffff16815260200160008152602001600081526020016000151581525090565b828054600181600116156101000203166002900490600052602060002090601f016020900481019282601f1061173d57805160ff191683800117855561176b565b8280016001018555821561176b579182015b8281111561176a57825182559160200191906001019061174f565b5b509050611778919061177c565b5090565b61179e91905b8082111561179a576000816000905550600101611782565b5090565b9056fea165627a7a7230582014f5e192a6f98213ca269d92722a632f792274e4879e2409be27d25151c71b250029",
  "source": "pragma solidity 0.5.8;\n\ncontract Certificate {\n\n    address[] certificateIndexes;\n\n    struct UserCertificate {\n            string userDomain;\n            string userMail;\n            uint trustValue;\n            string periodOfValidity;\n            string signature;\n            string version;\n            uint   totalCertified;\n            uint   index;\n            bool   isAvailable;\n    }\n\n    mapping(address => UserCertificate) UserCertificates;\n\n    // ****************NEW***CERTIFICATE***********\n\n    function newCertificate( address userAddress,\n                              string memory userDomain,\n                              string memory userMail,\n                              string memory periodOfValidity,\n                              string memory signature)\n    public\n    returns(bool success){\n          UserCertificates[userAddress].userMail          = userMail;\n          UserCertificates[userAddress].userDomain        = userDomain;\n          UserCertificates[userAddress].periodOfValidity  = periodOfValidity;\n          UserCertificates[userAddress].trustValue        = 0;\n          UserCertificates[userAddress].version           = \"0.0.1\";\n          UserCertificates[userAddress].signature         = \"testing.... The signature...\";\n          UserCertificates[userAddress].isAvailable       = true;\n          UserCertificates[userAddress].index             = certificateIndexes.push(userAddress)-1;\n          UserCertificates[userAddress].totalCertified    = 0;\n\n          return true;\n    }\n\n    // ****GET***CERTIFICAT****INFORMATION***\n\n    function getUserCertificate(address userAddress)\n    public\n    view\n    returns( string memory userDomain,\n             string memory userMail,\n             uint    trustValue,\n             string memory periodOfValidity,\n             string memory signature,\n             string memory version   ) {\n\n                    return( UserCertificates[userAddress].userDomain,\n                            UserCertificates[userAddress].userMail,\n                            UserCertificates[userAddress].trustValue,\n                            UserCertificates[userAddress].periodOfValidity,\n                            UserCertificates[userAddress].signature,\n                            UserCertificates[userAddress].version  );\n             }\n\n\n\n    //*********CHECK**IF**CERTIFICATE**CREATED******\n\n    function isCertificateExist(address userAddress)\n    public\n    returns( bool isCertificateValid ){\n              if(certificateIndexes.length == 0) return false;\n              if(certificateIndexes[ UserCertificates[userAddress].index ] == userAddress)return true;\n              else return false;\n            }\n\n\n    //********UPDATE***TRUST****VALUE*****\n    event check(uint totalTrustValue);\n    event check1(uint totalTrustValue);\n    event check2(uint totalTrustValue);\n\n    function updateTrustValue( address userAddress, uint aTrustValue )\n    public\n    returns(bool success){\n               uint totalTrustValue = UserCertificates[userAddress].trustValue  + aTrustValue;\n               UserCertificates[userAddress].totalCertified = UserCertificates[userAddress].totalCertified +1;\n               UserCertificates[userAddress].trustValue =  totalTrustValue;\n               emit check(totalTrustValue);\n               return true;\n    }\n\n\n    //*****REQUEST******PART****\n\n\n    struct CertifyBy {\n        address certifyByAddress;\n        uint receiveAmount;\n        uint returnedAmount;\n        bool returned;\n\n    }\n    mapping(address => CertifyBy[]) certifyBypeoples;\n\n    function requestCertificationTo(address certifyForAddress, address byAddress, uint amountGiven)\n    public\n    returns(bool success){\n        CertifyBy memory singleCertifier;\n        singleCertifier.certifyByAddress =byAddress;\n        singleCertifier.receiveAmount = amountGiven;\n        singleCertifier.returnedAmount = 0;\n        singleCertifier.returned =false;\n        certifyBypeoples[certifyForAddress].push(singleCertifier);\n        return true;\n    }\n\n    function backEtherForCertification(address certifyForAdd, address byAdd, uint amountGivenBack)\n    public\n    returns(bool success){\n\n        for (uint i = 0; i < certifyBypeoples[certifyForAdd].length; i++) {\n        emit check1(1);\n\n            if(certifyBypeoples[certifyForAdd][i].certifyByAddress == byAdd){\n                certifyBypeoples[certifyForAdd][i].returnedAmount = amountGivenBack;\n\n                if(certifyBypeoples[certifyForAdd][i].returnedAmount == certifyBypeoples[certifyForAdd][i].receiveAmount ){\n\n                    emit check2(2);\n                    certifyBypeoples[certifyForAdd][i].returned = true;\n                    uint newTrustValue = amountGivenBack;\n\n                    if(newTrustValue > 10)newTrustValue = 10;\n\n                    updateTrustValue(certifyForAdd,newTrustValue);\n\n                    return true;\n                }\n             else{\n                    return false;\n                }\n            }\n        }\n\n\n    }\n\n\n}\n",
  "sourcePath": "/home/emonhr/Desktop/my_thesis/PGP/contracts/Certificate.sol",
  "compiler": {
    "name": "solc",
    "version": "0.5.8+commit.23d335f2.Emscripten.clang"
  },
  "schemaVersion": "3.0.16",
  "updatedAt": "2019-10-16T08:10:17.953Z",
  "devdoc": {
    "methods": {}
  },
  "userdoc": {
    "methods": {}
  }
}