{
  "contractName": "certifyRequests",
  "abi": [
    {
      "constant": false,
      "inputs": [
        {
          "name": "certifyForAddress",
          "type": "address"
        },
        {
          "name": "byAddress",
          "type": "address"
        },
        {
          "name": "amountGiven",
          "type": "uint256"
        }
      ],
      "name": "requestCertificationTo",
      "outputs": [
        {
          "name": "success",
          "type": "bool"
        }
      ],
      "payable": false,
      "stateMutability": "nonpayable",
      "type": "function"
    }
  ],
  "bytecode": "0x608060405234801561001057600080fd5b5061027e806100206000396000f3fe608060405234801561001057600080fd5b506004361061002b5760003560e01c8063a59902cf14610030575b600080fd5b61009c6004803603606081101561004657600080fd5b81019080803573ffffffffffffffffffffffffffffffffffffffff169060200190929190803573ffffffffffffffffffffffffffffffffffffffff169060200190929190803590602001909291905050506100b6565b604051808215151515815260200191505060405180910390f35b60006100c0610212565b83816000019073ffffffffffffffffffffffffffffffffffffffff16908173ffffffffffffffffffffffffffffffffffffffff168152505082816020018181525050600081604001818152505060008160600190151590811515815250506000808673ffffffffffffffffffffffffffffffffffffffff1673ffffffffffffffffffffffffffffffffffffffff168152602001908152602001600020819080600181540180825580915050906001820390600052602060002090600402016000909192909190915060008201518160000160006101000a81548173ffffffffffffffffffffffffffffffffffffffff021916908373ffffffffffffffffffffffffffffffffffffffff160217905550602082015181600101556040820151816002015560608201518160030160006101000a81548160ff02191690831515021790555050505060019150509392505050565b6040518060800160405280600073ffffffffffffffffffffffffffffffffffffffff1681526020016000815260200160008152602001600015158152509056fea165627a7a72305820eab02a225007c5ab29913721356aea765888a49a32747ac8d4133f174e403ced0029",
  "source": "pragma solidity 0.5.8;\n\ncontract certifyRequests {\n\n    struct CertifyBy {\n        address certifyByAddress;\n        uint receiveAmount;\n        uint returnedAmount;\n        bool retuned;\n\n    }\n    mapping(address => CertifyBy[]) certifyBypeoples;\n\n    function requestCertificationTo(address certifyForAddress, address byAddress, uint amountGiven)\n    public\n    returns(bool success){\n        CertifyBy memory singleCertifier;\n        singleCertifier.certifyByAddress =byAddress;\n        singleCertifier.receiveAmount = amountGiven;\n        singleCertifier.returnedAmount = 0;\n        singleCertifier.retuned =false;\n        certifyBypeoples[certifyForAddress].push(singleCertifier);\n        return true;\n    }\n\n\n}\n",
  "sourcePath": "/home/emonhr/Desktop/my_thesis/PGP/contracts/certifyRequests.sol",
  "compiler": {
    "name": "solc",
    "version": "0.5.8+commit.23d335f2.Emscripten.clang"
  },
  "schemaVersion": "3.0.16",
  "updatedAt": "2019-10-13T23:20:10.657Z",
  "devdoc": {
    "methods": {}
  },
  "userdoc": {
    "methods": {}
  }
}